{
  "_format": "hh-sol-artifact-1",
  "contractName": "BudgetAllocation",
  "sourceName": "contracts/BudgetAllocation.sol",
  "abi": [
    {
      "anonymous": false,
      "inputs": [
        {
          "indexed": true,
          "internalType": "address",
          "name": "department",
          "type": "address"
        },
        {
          "indexed": false,
          "internalType": "uint256",
          "name": "amount",
          "type": "uint256"
        }
      ],
      "name": "BudgetAllocated",
      "type": "event"
    },
    {
      "anonymous": false,
      "inputs": [
        {
          "components": [
            {
              "internalType": "address",
              "name": "admin",
              "type": "address"
            },
            {
              "internalType": "string",
              "name": "orgName",
              "type": "string"
            },
            {
              "internalType": "uint256",
              "name": "totalBudget",
              "type": "uint256"
            },
            {
              "internalType": "string[]",
              "name": "departments",
              "type": "string[]"
            }
          ],
          "indexed": true,
          "internalType": "struct BudgetAllocation.BudgetData",
          "name": "budget",
          "type": "tuple"
        }
      ],
      "name": "BudgetCreated",
      "type": "event"
    },
    {
      "anonymous": false,
      "inputs": [
        {
          "indexed": true,
          "internalType": "uint256",
          "name": "updatedTotalBudget",
          "type": "uint256"
        }
      ],
      "name": "BudgetUpdated",
      "type": "event"
    },
    {
      "anonymous": false,
      "inputs": [
        {
          "indexed": true,
          "internalType": "address",
          "name": "department",
          "type": "address"
        },
        {
          "indexed": false,
          "internalType": "uint256",
          "name": "amount",
          "type": "uint256"
        }
      ],
      "name": "FundsDisbursed",
      "type": "event"
    },
    {
      "stateMutability": "payable",
      "type": "fallback"
    },
    {
      "inputs": [],
      "name": "admin",
      "outputs": [
        {
          "internalType": "address",
          "name": "",
          "type": "address"
        }
      ],
      "stateMutability": "view",
      "type": "function"
    },
    {
      "inputs": [
        {
          "internalType": "address",
          "name": "_department",
          "type": "address"
        },
        {
          "internalType": "uint256",
          "name": "_amount",
          "type": "uint256"
        },
        {
          "internalType": "uint256",
          "name": "_id",
          "type": "uint256"
        }
      ],
      "name": "allocateBudget",
      "outputs": [],
      "stateMutability": "nonpayable",
      "type": "function"
    },
    {
      "inputs": [
        {
          "internalType": "address",
          "name": "",
          "type": "address"
        }
      ],
      "name": "allocations",
      "outputs": [
        {
          "internalType": "uint256",
          "name": "",
          "type": "uint256"
        }
      ],
      "stateMutability": "view",
      "type": "function"
    },
    {
      "inputs": [
        {
          "internalType": "address",
          "name": "",
          "type": "address"
        }
      ],
      "name": "approved",
      "outputs": [
        {
          "internalType": "bool",
          "name": "",
          "type": "bool"
        }
      ],
      "stateMutability": "view",
      "type": "function"
    },
    {
      "inputs": [],
      "name": "budgetCount",
      "outputs": [
        {
          "internalType": "uint256",
          "name": "",
          "type": "uint256"
        }
      ],
      "stateMutability": "view",
      "type": "function"
    },
    {
      "inputs": [
        {
          "internalType": "uint256",
          "name": "",
          "type": "uint256"
        }
      ],
      "name": "budgets",
      "outputs": [
        {
          "internalType": "address",
          "name": "admin",
          "type": "address"
        },
        {
          "internalType": "string",
          "name": "orgName",
          "type": "string"
        },
        {
          "internalType": "uint256",
          "name": "totalBudget",
          "type": "uint256"
        }
      ],
      "stateMutability": "view",
      "type": "function"
    },
    {
      "inputs": [],
      "name": "departmentCount",
      "outputs": [
        {
          "internalType": "uint256",
          "name": "",
          "type": "uint256"
        }
      ],
      "stateMutability": "view",
      "type": "function"
    },
    {
      "inputs": [
        {
          "internalType": "address",
          "name": "",
          "type": "address"
        },
        {
          "internalType": "uint256",
          "name": "",
          "type": "uint256"
        }
      ],
      "name": "departments",
      "outputs": [
        {
          "internalType": "address",
          "name": "departmentAddress",
          "type": "address"
        },
        {
          "internalType": "uint256",
          "name": "budget",
          "type": "uint256"
        },
        {
          "internalType": "uint256",
          "name": "spent",
          "type": "uint256"
        }
      ],
      "stateMutability": "view",
      "type": "function"
    },
    {
      "inputs": [
        {
          "internalType": "address",
          "name": "_department",
          "type": "address"
        },
        {
          "internalType": "uint256",
          "name": "_amount",
          "type": "uint256"
        },
        {
          "internalType": "uint256",
          "name": "_id",
          "type": "uint256"
        }
      ],
      "name": "disburseFunds",
      "outputs": [],
      "stateMutability": "payable",
      "type": "function"
    },
    {
      "inputs": [
        {
          "internalType": "uint256",
          "name": "_id",
          "type": "uint256"
        }
      ],
      "name": "getBudget",
      "outputs": [
        {
          "components": [
            {
              "internalType": "address",
              "name": "admin",
              "type": "address"
            },
            {
              "internalType": "string",
              "name": "orgName",
              "type": "string"
            },
            {
              "internalType": "uint256",
              "name": "totalBudget",
              "type": "uint256"
            },
            {
              "internalType": "string[]",
              "name": "departments",
              "type": "string[]"
            }
          ],
          "internalType": "struct BudgetAllocation.BudgetData",
          "name": "",
          "type": "tuple"
        }
      ],
      "stateMutability": "view",
      "type": "function"
    },
    {
      "inputs": [
        {
          "internalType": "address",
          "name": "_department",
          "type": "address"
        },
        {
          "internalType": "uint256",
          "name": "_id",
          "type": "uint256"
        }
      ],
      "name": "getDepartment",
      "outputs": [
        {
          "components": [
            {
              "internalType": "address",
              "name": "departmentAddress",
              "type": "address"
            },
            {
              "internalType": "uint256",
              "name": "budget",
              "type": "uint256"
            },
            {
              "internalType": "uint256",
              "name": "spent",
              "type": "uint256"
            }
          ],
          "internalType": "struct BudgetAllocation.DepartmentData",
          "name": "",
          "type": "tuple"
        }
      ],
      "stateMutability": "view",
      "type": "function"
    },
    {
      "inputs": [
        {
          "internalType": "uint256",
          "name": "_id",
          "type": "uint256"
        }
      ],
      "name": "getTotalBudget",
      "outputs": [
        {
          "internalType": "uint256",
          "name": "",
          "type": "uint256"
        }
      ],
      "stateMutability": "view",
      "type": "function"
    },
    {
      "inputs": [
        {
          "internalType": "string",
          "name": "orgName",
          "type": "string"
        },
        {
          "internalType": "uint256",
          "name": "_totalBudget",
          "type": "uint256"
        },
        {
          "internalType": "string[]",
          "name": "_departments",
          "type": "string[]"
        }
      ],
      "name": "setBudgetParams",
      "outputs": [],
      "stateMutability": "nonpayable",
      "type": "function"
    },
    {
      "inputs": [
        {
          "internalType": "address",
          "name": "_department",
          "type": "address"
        },
        {
          "internalType": "uint256",
          "name": "_id",
          "type": "uint256"
        }
      ],
      "name": "trackSpending",
      "outputs": [
        {
          "internalType": "uint256",
          "name": "",
          "type": "uint256"
        }
      ],
      "stateMutability": "view",
      "type": "function"
    },
    {
      "inputs": [
        {
          "internalType": "uint256",
          "name": "_additionalAmount",
          "type": "uint256"
        },
        {
          "internalType": "uint256",
          "name": "_id",
          "type": "uint256"
        }
      ],
      "name": "updateTotalBudget",
      "outputs": [],
      "stateMutability": "nonpayable",
      "type": "function"
    },
    {
      "stateMutability": "payable",
      "type": "receive"
    }
  ],
  "bytecode": "0x608060405234801561001057600080fd5b50612cc4806100206000396000f3fe6080604052600436106100ec5760003560e01c806369f0e05f1161008a578063ce1107f311610059578063ce1107f314610378578063d8b964e6146103a1578063e00e437f146103de578063f851a44014610407576100f3565b806369f0e05f146102b557806393964b15146102f4578063aaa3cd4714610310578063c7d822901461033b576100f3565b80633ba0e33c116100c65780633ba0e33c146101d357806346db5c0b146101fc5780634f5c577e1461023b57806352a9039c14610278576100f3565b80630a3e6fc21461012e57806314bbe737146101595780632e4ea4c414610196576100f3565b366100f357005b6040517f08c379a0000000000000000000000000000000000000000000000000000000008152600401610125906119fb565b60405180910390fd5b34801561013a57600080fd5b50610143610432565b6040516101509190611a34565b60405180910390f35b34801561016557600080fd5b50610180600480360381019061017b9190611aed565b610438565b60405161018d9190611b8d565b60405180910390f35b3480156101a257600080fd5b506101bd60048036038101906101b89190611ba8565b610685565b6040516101ca9190611d91565b60405180910390f35b3480156101df57600080fd5b506101fa60048036038101906101f59190611db3565b61087d565b005b34801561020857600080fd5b50610223600480360381019061021e9190611aed565b610997565b60405161023293929190611e02565b60405180910390f35b34801561024757600080fd5b50610262600480360381019061025d9190611ba8565b6109fe565b60405161026f9190611a34565b60405180910390f35b34801561028457600080fd5b5061029f600480360381019061029a9190611e39565b610a1e565b6040516102ac9190611a34565b60405180910390f35b3480156102c157600080fd5b506102dc60048036038101906102d79190611ba8565b610a36565b6040516102eb93929190611e9f565b60405180910390f35b61030e60048036038101906103099190611edd565b610b08565b005b34801561031c57600080fd5b50610325611026565b6040516103329190611a34565b60405180910390f35b34801561034757600080fd5b50610362600480360381019061035d9190611aed565b61102c565b60405161036f9190611a34565b60405180910390f35b34801561038457600080fd5b5061039f600480360381019061039a9190611edd565b61127d565b005b3480156103ad57600080fd5b506103c860048036038101906103c39190611e39565b611682565b6040516103d59190611f4b565b60405180910390f35b3480156103ea57600080fd5b5061040560048036038101906104009190612181565b6116a2565b005b34801561041357600080fd5b5061041c61182b565b604051610429919061220c565b60405180910390f35b60025481565b61044061184f565b6005600083815260200190815260200160002060000160009054906101000a900473ffffffffffffffffffffffffffffffffffffffff168073ffffffffffffffffffffffffffffffffffffffff163373ffffffffffffffffffffffffffffffffffffffff16146104e5576040517f08c379a00000000000000000000000000000000000000000000000000000000081526004016104dc90612273565b60405180910390fd5b6104ed61184f565b6000600660003373ffffffffffffffffffffffffffffffffffffffff1673ffffffffffffffffffffffffffffffffffffffff168152602001908152602001600020805480602002602001604051908101604052809291908181526020016000905b828210156105ea57838290600052602060002090600302016040518060600160405290816000820160009054906101000a900473ffffffffffffffffffffffffffffffffffffffff1673ffffffffffffffffffffffffffffffffffffffff1673ffffffffffffffffffffffffffffffffffffffff168152602001600182015481526020016002820154815250508152602001906001019061054e565b50505050905060005b8151811015610678578673ffffffffffffffffffffffffffffffffffffffff1682828151811061062657610625612293565b5b60200260200101516000015173ffffffffffffffffffffffffffffffffffffffff160361066b578181815181106106605761065f612293565b5b602002602001015192505b80806001019150506105f3565b5081935050505092915050565b61068d611886565b600560008381526020019081526020016000206040518060800160405290816000820160009054906101000a900473ffffffffffffffffffffffffffffffffffffffff1673ffffffffffffffffffffffffffffffffffffffff1673ffffffffffffffffffffffffffffffffffffffff168152602001600182018054610711906122f1565b80601f016020809104026020016040519081016040528092919081815260200182805461073d906122f1565b801561078a5780601f1061075f5761010080835404028352916020019161078a565b820191906000526020600020905b81548152906001019060200180831161076d57829003601f168201915b505050505081526020016002820154815260200160038201805480602002602001604051908101604052809291908181526020016000905b8282101561086e5783829060005260206000200180546107e1906122f1565b80601f016020809104026020016040519081016040528092919081815260200182805461080d906122f1565b801561085a5780601f1061082f5761010080835404028352916020019161085a565b820191906000526020600020905b81548152906001019060200180831161083d57829003601f168201915b5050505050815260200190600101906107c2565b50505050815250509050919050565b6005600082815260200190815260200160002060000160009054906101000a900473ffffffffffffffffffffffffffffffffffffffff168073ffffffffffffffffffffffffffffffffffffffff163373ffffffffffffffffffffffffffffffffffffffff1614610922576040517f08c379a000000000000000000000000000000000000000000000000000000000815260040161091990612273565b60405180910390fd5b826005600084815260200190815260200160002060020160008282546109489190612351565b9250508190555060056000838152602001908152602001600020600201547fa0f8c4bbabac2904a1933feee4b665bc08f3d75d616bd9045f707c558dbdfc3160405160405180910390a2505050565b600660205281600052604060002081815481106109b357600080fd5b9060005260206000209060030201600091509150508060000160009054906101000a900473ffffffffffffffffffffffffffffffffffffffff16908060010154908060020154905083565b600060056000838152602001908152602001600020600201549050919050565b60036020528060005260406000206000915090505481565b60056020528060005260406000206000915090508060000160009054906101000a900473ffffffffffffffffffffffffffffffffffffffff1690806001018054610a7f906122f1565b80601f0160208091040260200160405190810160405280929190818152602001828054610aab906122f1565b8015610af85780601f10610acd57610100808354040283529160200191610af8565b820191906000526020600020905b815481529060010190602001808311610adb57829003601f168201915b5050505050908060020154905083565b6005600082815260200190815260200160002060000160009054906101000a900473ffffffffffffffffffffffffffffffffffffffff168073ffffffffffffffffffffffffffffffffffffffff163373ffffffffffffffffffffffffffffffffffffffff1614610bad576040517f08c379a0000000000000000000000000000000000000000000000000000000008152600401610ba490612273565b60405180910390fd5b83600073ffffffffffffffffffffffffffffffffffffffff168173ffffffffffffffffffffffffffffffffffffffff1603610c1d576040517f08c379a0000000000000000000000000000000000000000000000000000000008152600401610c14906123d1565b60405180910390fd5b600460008673ffffffffffffffffffffffffffffffffffffffff1673ffffffffffffffffffffffffffffffffffffffff16815260200190815260200160002060009054906101000a900460ff16610ca9576040517f08c379a0000000000000000000000000000000000000000000000000000000008152600401610ca090612463565b60405180910390fd5b600360008673ffffffffffffffffffffffffffffffffffffffff1673ffffffffffffffffffffffffffffffffffffffff16815260200190815260200160002054841115610d2b576040517f08c379a0000000000000000000000000000000000000000000000000000000008152600401610d22906124cf565b60405180910390fd5b83600360008773ffffffffffffffffffffffffffffffffffffffff1673ffffffffffffffffffffffffffffffffffffffff1681526020019081526020016000206000828254610d7a91906124ef565b925050819055506000600660003373ffffffffffffffffffffffffffffffffffffffff1673ffffffffffffffffffffffffffffffffffffffff168152602001908152602001600020805480602002602001604051908101604052809291908181526020016000905b82821015610e7e57838290600052602060002090600302016040518060600160405290816000820160009054906101000a900473ffffffffffffffffffffffffffffffffffffffff1673ffffffffffffffffffffffffffffffffffffffff1673ffffffffffffffffffffffffffffffffffffffff1681526020016001820154815260200160028201548152505081526020019060010190610de2565b50505050905060005b8151811015610f22578673ffffffffffffffffffffffffffffffffffffffff16828281518110610eba57610eb9612293565b5b60200260200101516000015173ffffffffffffffffffffffffffffffffffffffff1603610f155785828281518110610ef557610ef4612293565b5b6020026020010151604001818151610f0d9190612351565b915081815250505b8080600101915050610e87565b5060008673ffffffffffffffffffffffffffffffffffffffff1686604051610f4990612554565b60006040518083038185875af1925050503d8060008114610f86576040519150601f19603f3d011682016040523d82523d6000602084013e610f8b565b606091505b5050905080610fcf576040517f08c379a0000000000000000000000000000000000000000000000000000000008152600401610fc6906125b5565b60405180910390fd5b8673ffffffffffffffffffffffffffffffffffffffff167f782e29f84677015232f6d7f6802ffa1526db4d9800d3bdc9516a111f240e8086876040516110159190611a34565b60405180910390a250505050505050565b60015481565b60006005600083815260200190815260200160002060000160009054906101000a900473ffffffffffffffffffffffffffffffffffffffff168073ffffffffffffffffffffffffffffffffffffffff163373ffffffffffffffffffffffffffffffffffffffff16146110d3576040517f08c379a00000000000000000000000000000000000000000000000000000000081526004016110ca90612273565b60405180910390fd5b60006110dd61184f565b6000600660003373ffffffffffffffffffffffffffffffffffffffff1673ffffffffffffffffffffffffffffffffffffffff168152602001908152602001600020805480602002602001604051908101604052809291908181526020016000905b828210156111da57838290600052602060002090600302016040518060600160405290816000820160009054906101000a900473ffffffffffffffffffffffffffffffffffffffff1673ffffffffffffffffffffffffffffffffffffffff1673ffffffffffffffffffffffffffffffffffffffff168152602001600182015481526020016002820154815250508152602001906001019061113e565b50505050905060005b815181101561126f578773ffffffffffffffffffffffffffffffffffffffff1682828151811061121657611215612293565b5b60200260200101516000015173ffffffffffffffffffffffffffffffffffffffff1603611262578181815181106112505761124f612293565b5b60200260200101519250826040015193505b80806001019150506111e3565b508294505050505092915050565b6005600082815260200190815260200160002060000160009054906101000a900473ffffffffffffffffffffffffffffffffffffffff168073ffffffffffffffffffffffffffffffffffffffff163373ffffffffffffffffffffffffffffffffffffffff1614611322576040517f08c379a000000000000000000000000000000000000000000000000000000000815260040161131990612273565b60405180910390fd5b83600073ffffffffffffffffffffffffffffffffffffffff168173ffffffffffffffffffffffffffffffffffffffff1603611392576040517f08c379a0000000000000000000000000000000000000000000000000000000008152600401611389906123d1565b60405180910390fd5b60056000848152602001908152602001600020600201548411156113eb576040517f08c379a00000000000000000000000000000000000000000000000000000000081526004016113e290612621565b60405180910390fd5b6000600360008773ffffffffffffffffffffffffffffffffffffffff1673ffffffffffffffffffffffffffffffffffffffff168152602001908152602001600020541461146d576040517f08c379a0000000000000000000000000000000000000000000000000000000008152600401611464906126b3565b60405180910390fd5b83600360008773ffffffffffffffffffffffffffffffffffffffff1673ffffffffffffffffffffffffffffffffffffffff168152602001908152602001600020819055506001600460008773ffffffffffffffffffffffffffffffffffffffff1673ffffffffffffffffffffffffffffffffffffffff16815260200190815260200160002060006101000a81548160ff021916908315150217905550600660003373ffffffffffffffffffffffffffffffffffffffff1673ffffffffffffffffffffffffffffffffffffffff16815260200190815260200160002060405180606001604052808773ffffffffffffffffffffffffffffffffffffffff1681526020018681526020016000815250908060018154018082558091505060019003906000526020600020906003020160009091909190915060008201518160000160006101000a81548173ffffffffffffffffffffffffffffffffffffffff021916908373ffffffffffffffffffffffffffffffffffffffff160217905550602082015181600101556040820151816002015550508360056000858152602001908152602001600020600201600082825461162691906124ef565b925050819055508473ffffffffffffffffffffffffffffffffffffffff167fa4f0fe3df3c54fb3c4746a27f6ebc524bc3a8fb3a520fee9de6cc75e0112c6ea856040516116739190611a34565b60405180910390a25050505050565b60046020528060005260406000206000915054906101000a900460ff1681565b600082116116e5576040517f08c379a00000000000000000000000000000000000000000000000000000000081526004016116dc9061271f565b60405180910390fd5b60405180608001604052803373ffffffffffffffffffffffffffffffffffffffff1681526020018481526020018381526020018281525060056000600254815260200190815260200160002060008201518160000160006101000a81548173ffffffffffffffffffffffffffffffffffffffff021916908373ffffffffffffffffffffffffffffffffffffffff160217905550602082015181600101908161178d91906128eb565b506040820151816002015560608201518160030190805190602001906117b49291906118c4565b509050506005600060025481526020019081526020016000206040516117da9190612c2f565b60405180910390207f13e0e4c2b2a2f07d5037173750ea29401ba6b9dbbb02c20b78085af2790ea1d760405160405180910390a26002600081548092919061182190612c46565b9190505550505050565b60008054906101000a900473ffffffffffffffffffffffffffffffffffffffff1681565b6040518060600160405280600073ffffffffffffffffffffffffffffffffffffffff16815260200160008152602001600081525090565b6040518060800160405280600073ffffffffffffffffffffffffffffffffffffffff1681526020016060815260200160008152602001606081525090565b82805482825590600052602060002090810192821561190c579160200282015b8281111561190b5782518290816118fb91906128eb565b50916020019190600101906118e4565b5b509050611919919061191d565b5090565b5b8082111561193d57600081816119349190611941565b5060010161191e565b5090565b50805461194d906122f1565b6000825580601f1061195f575061197e565b601f01602090049060005260206000209081019061197d9190611981565b5b50565b5b8082111561199a576000816000905550600101611982565b5090565b600082825260208201905092915050565b7f556e737570706f72746564206f7065726174696f6e0000000000000000000000600082015250565b60006119e560158361199e565b91506119f0826119af565b602082019050919050565b60006020820190508181036000830152611a14816119d8565b9050919050565b6000819050919050565b611a2e81611a1b565b82525050565b6000602082019050611a496000830184611a25565b92915050565b6000604051905090565b600080fd5b600080fd5b600073ffffffffffffffffffffffffffffffffffffffff82169050919050565b6000611a8e82611a63565b9050919050565b611a9e81611a83565b8114611aa957600080fd5b50565b600081359050611abb81611a95565b92915050565b611aca81611a1b565b8114611ad557600080fd5b50565b600081359050611ae781611ac1565b92915050565b60008060408385031215611b0457611b03611a59565b5b6000611b1285828601611aac565b9250506020611b2385828601611ad8565b9150509250929050565b611b3681611a83565b82525050565b611b4581611a1b565b82525050565b606082016000820151611b616000850182611b2d565b506020820151611b746020850182611b3c565b506040820151611b876040850182611b3c565b50505050565b6000606082019050611ba26000830184611b4b565b92915050565b600060208284031215611bbe57611bbd611a59565b5b6000611bcc84828501611ad8565b91505092915050565b600081519050919050565b600082825260208201905092915050565b60005b83811015611c0f578082015181840152602081019050611bf4565b60008484015250505050565b6000601f19601f8301169050919050565b6000611c3782611bd5565b611c418185611be0565b9350611c51818560208601611bf1565b611c5a81611c1b565b840191505092915050565b600081519050919050565b600082825260208201905092915050565b6000819050602082019050919050565b6000611c9d8383611c2c565b905092915050565b6000602082019050919050565b6000611cbd82611c65565b611cc78185611c70565b935083602082028501611cd985611c81565b8060005b85811015611d155784840389528151611cf68582611c91565b9450611d0183611ca5565b925060208a01995050600181019050611cdd565b50829750879550505050505092915050565b6000608083016000830151611d3f6000860182611b2d565b5060208301518482036020860152611d578282611c2c565b9150506040830151611d6c6040860182611b3c565b5060608301518482036060860152611d848282611cb2565b9150508091505092915050565b60006020820190508181036000830152611dab8184611d27565b905092915050565b60008060408385031215611dca57611dc9611a59565b5b6000611dd885828601611ad8565b9250506020611de985828601611ad8565b9150509250929050565b611dfc81611a83565b82525050565b6000606082019050611e176000830186611df3565b611e246020830185611a25565b611e316040830184611a25565b949350505050565b600060208284031215611e4f57611e4e611a59565b5b6000611e5d84828501611aac565b91505092915050565b6000611e7182611bd5565b611e7b818561199e565b9350611e8b818560208601611bf1565b611e9481611c1b565b840191505092915050565b6000606082019050611eb46000830186611df3565b8181036020830152611ec68185611e66565b9050611ed56040830184611a25565b949350505050565b600080600060608486031215611ef657611ef5611a59565b5b6000611f0486828701611aac565b9350506020611f1586828701611ad8565b9250506040611f2686828701611ad8565b9150509250925092565b60008115159050919050565b611f4581611f30565b82525050565b6000602082019050611f606000830184611f3c565b92915050565b600080fd5b600080fd5b7f4e487b7100000000000000000000000000000000000000000000000000000000600052604160045260246000fd5b611fa882611c1b565b810181811067ffffffffffffffff82111715611fc757611fc6611f70565b5b80604052505050565b6000611fda611a4f565b9050611fe68282611f9f565b919050565b600067ffffffffffffffff82111561200657612005611f70565b5b61200f82611c1b565b9050602081019050919050565b82818337600083830152505050565b600061203e61203984611feb565b611fd0565b90508281526020810184848401111561205a57612059611f6b565b5b61206584828561201c565b509392505050565b600082601f83011261208257612081611f66565b5b813561209284826020860161202b565b91505092915050565b600067ffffffffffffffff8211156120b6576120b5611f70565b5b602082029050602081019050919050565b600080fd5b60006120df6120da8461209b565b611fd0565b90508083825260208201905060208402830185811115612102576121016120c7565b5b835b8181101561214957803567ffffffffffffffff81111561212757612126611f66565b5b808601612134898261206d565b85526020850194505050602081019050612104565b5050509392505050565b600082601f83011261216857612167611f66565b5b81356121788482602086016120cc565b91505092915050565b60008060006060848603121561219a57612199611a59565b5b600084013567ffffffffffffffff8111156121b8576121b7611a5e565b5b6121c48682870161206d565b93505060206121d586828701611ad8565b925050604084013567ffffffffffffffff8111156121f6576121f5611a5e565b5b61220286828701612153565b9150509250925092565b60006020820190506122216000830184611df3565b92915050565b7f4f6e6c792061646d696e2063616e206578656375746520746869730000000000600082015250565b600061225d601b8361199e565b915061226882612227565b602082019050919050565b6000602082019050818103600083015261228c81612250565b9050919050565b7f4e487b7100000000000000000000000000000000000000000000000000000000600052603260045260246000fd5b7f4e487b7100000000000000000000000000000000000000000000000000000000600052602260045260246000fd5b6000600282049050600182168061230957607f821691505b60208210810361231c5761231b6122c2565b5b50919050565b7f4e487b7100000000000000000000000000000000000000000000000000000000600052601160045260246000fd5b600061235c82611a1b565b915061236783611a1b565b925082820190508082111561237f5761237e612322565b5b92915050565b7f496e76616c696420616464726573730000000000000000000000000000000000600082015250565b60006123bb600f8361199e565b91506123c682612385565b602082019050919050565b600060208201905081810360008301526123ea816123ae565b9050919050565b7f4465706172746d656e74206e6f7420617070726f76656420666f722066756e6460008201527f696e670000000000000000000000000000000000000000000000000000000000602082015250565b600061244d60238361199e565b9150612458826123f1565b604082019050919050565b6000602082019050818103600083015261247c81612440565b9050919050565b7f416d6f756e74206578636565647320616c6c6f63617465642062756467657400600082015250565b60006124b9601f8361199e565b91506124c482612483565b602082019050919050565b600060208201905081810360008301526124e8816124ac565b9050919050565b60006124fa82611a1b565b915061250583611a1b565b925082820390508181111561251d5761251c612322565b5b92915050565b600081905092915050565b50565b600061253e600083612523565b91506125498261252e565b600082019050919050565b600061255f82612531565b9150819050919050565b7f4661696c656420746f207472616e736665722066756e64730000000000000000600082015250565b600061259f60188361199e565b91506125aa82612569565b602082019050919050565b600060208201905081810360008301526125ce81612592565b9050919050565b7f416c6c6f636174696f6e206578636565647320746f74616c2062756467657400600082015250565b600061260b601f8361199e565b9150612616826125d5565b602082019050919050565b6000602082019050818103600083015261263a816125fe565b9050919050565b7f4465706172746d656e7420616c72656164792068617320616e20616c6c6f636160008201527f74696f6e00000000000000000000000000000000000000000000000000000000602082015250565b600061269d60248361199e565b91506126a882612641565b604082019050919050565b600060208201905081810360008301526126cc81612690565b9050919050565b7f496e76616c696420627564676574000000000000000000000000000000000000600082015250565b6000612709600e8361199e565b9150612714826126d3565b602082019050919050565b60006020820190508181036000830152612738816126fc565b9050919050565b60008190508160005260206000209050919050565b60006020601f8301049050919050565b600082821b905092915050565b6000600883026127a17fffffffffffffffffffffffffffffffffffffffffffffffffffffffffffffffff82612764565b6127ab8683612764565b95508019841693508086168417925050509392505050565b6000819050919050565b60006127e86127e36127de84611a1b565b6127c3565b611a1b565b9050919050565b6000819050919050565b612802836127cd565b61281661280e826127ef565b848454612771565b825550505050565b600090565b61282b61281e565b6128368184846127f9565b505050565b5b8181101561285a5761284f600082612823565b60018101905061283c565b5050565b601f82111561289f576128708161273f565b61287984612754565b81016020851015612888578190505b61289c61289485612754565b83018261283b565b50505b505050565b600082821c905092915050565b60006128c2600019846008026128a4565b1980831691505092915050565b60006128db83836128b1565b9150826002028217905092915050565b6128f482611bd5565b67ffffffffffffffff81111561290d5761290c611f70565b5b61291782546122f1565b61292282828561285e565b600060209050601f8311600181146129555760008415612943578287015190505b61294d85826128cf565b8655506129b5565b601f1984166129638661273f565b60005b8281101561298b57848901518255600182019150602085019450602081019050612966565b868310156129a857848901516129a4601f8916826128b1565b8355505b6001600288020188555050505b505050505050565b60008160001c9050919050565b600073ffffffffffffffffffffffffffffffffffffffff82169050919050565b60006129fd6129f8836129bd565b6129ca565b9050919050565b612a0d81611a83565b82525050565b6000612a1f8383612a04565b60208301905092915050565b600081905092915050565b60008154612a43816122f1565b612a4d8186612a2b565b94506001821660008114612a685760018114612a7e57612ab1565b60ff198316865281151560200286019350612ab1565b612a878561273f565b60005b83811015612aa957815481890152600182019150602081019050612a8a565b808801955050505b50505092915050565b6000612ac68383612a36565b905092915050565b6000819050919050565b6000612aeb612ae6836129bd565b612ace565b9050919050565b612afb81611a1b565b82525050565b6000612b0d8383612af2565b60208301905092915050565b600081549050919050565b600081905092915050565b60008190508160005260206000209050919050565b6000600182019050919050565b6000612b5c82612b19565b612b668185612b24565b9350612b7183612b2f565b8060005b83811015612ba15781612b888882612aba565b9750612b9383612b44565b925050600181019050612b75565b5085935050505092915050565b6000612bba8383612b51565b905092915050565b60008083016000808401549050612bd8816129ea565b612be28682612a13565b95505060018401612bf38682612aba565b95505060028401549050612c0681612ad8565b612c108682612b01565b95505060038401612c218682612bae565b955050849250505092915050565b6000612c3b8284612bc2565b915081905092915050565b6000612c5182611a1b565b91507fffffffffffffffffffffffffffffffffffffffffffffffffffffffffffffffff8203612c8357612c82612322565b5b60018201905091905056fea2646970667358221220fc1fa7d558771d0fe94cd533b7e5d689fa8b8611b3cdad5716e25922ddb483ef64736f6c63430008180033",
  "linkReferences": {},
  "deployedLinkReferences": {}
}