{
  "_format": "hh-sol-artifact-1",
  "contractName": "FundRequest",
  "sourceName": "contracts/FundRequest.sol",
  "abi": [
    {
      "inputs": [
        {
          "internalType": "address",
          "name": "_budgetContract",
          "type": "address"
        }
      ],
      "stateMutability": "nonpayable",
      "type": "constructor"
    },
    {
      "anonymous": false,
      "inputs": [
        {
          "indexed": true,
          "internalType": "address",
          "name": "department",
          "type": "address"
        },
        {
          "indexed": false,
          "internalType": "uint256",
          "name": "amount",
          "type": "uint256"
        }
      ],
      "name": "FundApproved",
      "type": "event"
    },
    {
      "anonymous": false,
      "inputs": [
        {
          "indexed": true,
          "internalType": "address",
          "name": "department",
          "type": "address"
        },
        {
          "indexed": false,
          "internalType": "uint256",
          "name": "amount",
          "type": "uint256"
        },
        {
          "indexed": false,
          "internalType": "string",
          "name": "reason",
          "type": "string"
        }
      ],
      "name": "FundRequested",
      "type": "event"
    },
    {
      "inputs": [
        {
          "internalType": "address",
          "name": "_department",
          "type": "address"
        },
        {
          "internalType": "uint256",
          "name": "_id",
          "type": "uint256"
        }
      ],
      "name": "approveRequest",
      "outputs": [],
      "stateMutability": "nonpayable",
      "type": "function"
    },
    {
      "inputs": [],
      "name": "budgetContract",
      "outputs": [
        {
          "internalType": "contract BudgetAllocation",
          "name": "",
          "type": "address"
        }
      ],
      "stateMutability": "view",
      "type": "function"
    },
    {
      "inputs": [
        {
          "internalType": "address",
          "name": "_department",
          "type": "address"
        }
      ],
      "name": "rejectRequest",
      "outputs": [],
      "stateMutability": "nonpayable",
      "type": "function"
    },
    {
      "inputs": [
        {
          "internalType": "uint256",
          "name": "_amount",
          "type": "uint256"
        },
        {
          "internalType": "string",
          "name": "_reason",
          "type": "string"
        }
      ],
      "name": "requestFunds",
      "outputs": [],
      "stateMutability": "nonpayable",
      "type": "function"
    },
    {
      "inputs": [
        {
          "internalType": "address",
          "name": "",
          "type": "address"
        }
      ],
      "name": "requests",
      "outputs": [
        {
          "internalType": "uint256",
          "name": "amount",
          "type": "uint256"
        },
        {
          "internalType": "string",
          "name": "reason",
          "type": "string"
        },
        {
          "internalType": "bool",
          "name": "approved",
          "type": "bool"
        },
        {
          "internalType": "bool",
          "name": "exists",
          "type": "bool"
        }
      ],
      "stateMutability": "view",
      "type": "function"
    }
  ],
  "bytecode": "0x60806040523480156200001157600080fd5b5060405162001779380380620017798339818101604052810190620000379190620000e8565b806000806101000a81548173ffffffffffffffffffffffffffffffffffffffff021916908373ffffffffffffffffffffffffffffffffffffffff160217905550506200011a565b600080fd5b600073ffffffffffffffffffffffffffffffffffffffff82169050919050565b6000620000b08262000083565b9050919050565b620000c281620000a3565b8114620000ce57600080fd5b50565b600081519050620000e281620000b7565b92915050565b6000602082840312156200010157620001006200007e565b5b60006200011184828501620000d1565b91505092915050565b61164f806200012a6000396000f3fe608060405234801561001057600080fd5b50600436106100575760003560e01c80633e3328e21461005c5780636d5ee98a14610078578063745f64d71461009457806374adad1d146100b2578063ca07b4b4146100e5575b600080fd5b61007660048036038101906100719190610b53565b610101565b005b610092600480360381019061008d9190610bf8565b6103ea565b005b61009c6106fa565b6040516100a99190610cb7565b60405180910390f35b6100cc60048036038101906100c79190610cd2565b61071e565b6040516100dc9493929190610db9565b60405180910390f35b6100ff60048036038101906100fa9190610cd2565b6107f0565b005b60008054906101000a900473ffffffffffffffffffffffffffffffffffffffff1673ffffffffffffffffffffffffffffffffffffffff1663f851a4406040518163ffffffff1660e01b8152600401602060405180830381865afa15801561016c573d6000803e3d6000fd5b505050506040513d601f19601f820116820180604052508101906101909190610e1a565b73ffffffffffffffffffffffffffffffffffffffff163373ffffffffffffffffffffffffffffffffffffffff16146101fd576040517f08c379a00000000000000000000000000000000000000000000000000000000081526004016101f490610e93565b60405180910390fd5b6000600160008473ffffffffffffffffffffffffffffffffffffffff1673ffffffffffffffffffffffffffffffffffffffff16815260200190815260200160002090508060020160019054906101000a900460ff16610291576040517f08c379a000000000000000000000000000000000000000000000000000000000815260040161028890610eff565b60405180910390fd5b8060020160009054906101000a900460ff16156102e3576040517f08c379a00000000000000000000000000000000000000000000000000000000081526004016102da90610f6b565b60405180910390fd5b60018160020160006101000a81548160ff02191690831515021790555060008054906101000a900473ffffffffffffffffffffffffffffffffffffffff1673ffffffffffffffffffffffffffffffffffffffff166393964b15848360000154856040518463ffffffff1660e01b815260040161036193929190610f9a565b600060405180830381600087803b15801561037b57600080fd5b505af115801561038f573d6000803e3d6000fd5b505050508273ffffffffffffffffffffffffffffffffffffffff167feae1671d2960127bc3f7327a91f58900dd6350954335b6f2fdd7eef156b53a6c82600001546040516103dd9190610fd1565b60405180910390a2505050565b60008054906101000a900473ffffffffffffffffffffffffffffffffffffffff1673ffffffffffffffffffffffffffffffffffffffff1663d8b964e6336040518263ffffffff1660e01b81526004016104439190610fec565b602060405180830381865afa158015610460573d6000803e3d6000fd5b505050506040513d601f19601f820116820180604052508101906104849190611033565b6104c3576040517f08c379a00000000000000000000000000000000000000000000000000000000081526004016104ba906110d2565b60405180910390fd5b60008311610506576040517f08c379a00000000000000000000000000000000000000000000000000000000081526004016104fd90611164565b60405180910390fd5b600160003373ffffffffffffffffffffffffffffffffffffffff1673ffffffffffffffffffffffffffffffffffffffff16815260200190815260200160002060020160019054906101000a900460ff1615610596576040517f08c379a000000000000000000000000000000000000000000000000000000000815260040161058d906111f6565b60405180910390fd5b604051806080016040528084815260200183838080601f016020809104026020016040519081016040528093929190818152602001838380828437600081840152601f19601f82011690508083019250505050505050815260200160001515815260200160011515815250600160003373ffffffffffffffffffffffffffffffffffffffff1673ffffffffffffffffffffffffffffffffffffffff16815260200190815260200160002060008201518160000155602082015181600101908161065f9190611447565b5060408201518160020160006101000a81548160ff02191690831515021790555060608201518160020160016101000a81548160ff0219169083151502179055509050503373ffffffffffffffffffffffffffffffffffffffff167f4824f03b72405bdcda11015e9bab283e3cfb068d7a9590f2efb834ea4305f0fd8484846040516106ed93929190611555565b60405180910390a2505050565b60008054906101000a900473ffffffffffffffffffffffffffffffffffffffff1681565b600160205280600052604060002060009150905080600001549080600101805461074790611274565b80601f016020809104026020016040519081016040528092919081815260200182805461077390611274565b80156107c05780601f10610795576101008083540402835291602001916107c0565b820191906000526020600020905b8154815290600101906020018083116107a357829003601f168201915b5050505050908060020160009054906101000a900460ff16908060020160019054906101000a900460ff16905084565b60008054906101000a900473ffffffffffffffffffffffffffffffffffffffff1673ffffffffffffffffffffffffffffffffffffffff1663f851a4406040518163ffffffff1660e01b8152600401602060405180830381865afa15801561085b573d6000803e3d6000fd5b505050506040513d601f19601f8201168201806040525081019061087f9190610e1a565b73ffffffffffffffffffffffffffffffffffffffff163373ffffffffffffffffffffffffffffffffffffffff16146108ec576040517f08c379a00000000000000000000000000000000000000000000000000000000081526004016108e390610e93565b60405180910390fd5b6000600160008373ffffffffffffffffffffffffffffffffffffffff1673ffffffffffffffffffffffffffffffffffffffff16815260200190815260200160002090508060020160019054906101000a900460ff16610980576040517f08c379a000000000000000000000000000000000000000000000000000000000815260040161097790610eff565b60405180910390fd5b8060020160009054906101000a900460ff16156109d2576040517f08c379a00000000000000000000000000000000000000000000000000000000081526004016109c9906115f9565b60405180910390fd5b600160008373ffffffffffffffffffffffffffffffffffffffff1673ffffffffffffffffffffffffffffffffffffffff168152602001908152602001600020600080820160009055600182016000610a2a9190610a58565b6002820160006101000a81549060ff02191690556002820160016101000a81549060ff021916905550505050565b508054610a6490611274565b6000825580601f10610a765750610a95565b601f016020900490600052602060002090810190610a949190610a98565b5b50565b5b80821115610ab1576000816000905550600101610a99565b5090565b600080fd5b600080fd5b600073ffffffffffffffffffffffffffffffffffffffff82169050919050565b6000610aea82610abf565b9050919050565b610afa81610adf565b8114610b0557600080fd5b50565b600081359050610b1781610af1565b92915050565b6000819050919050565b610b3081610b1d565b8114610b3b57600080fd5b50565b600081359050610b4d81610b27565b92915050565b60008060408385031215610b6a57610b69610ab5565b5b6000610b7885828601610b08565b9250506020610b8985828601610b3e565b9150509250929050565b600080fd5b600080fd5b600080fd5b60008083601f840112610bb857610bb7610b93565b5b8235905067ffffffffffffffff811115610bd557610bd4610b98565b5b602083019150836001820283011115610bf157610bf0610b9d565b5b9250929050565b600080600060408486031215610c1157610c10610ab5565b5b6000610c1f86828701610b3e565b935050602084013567ffffffffffffffff811115610c4057610c3f610aba565b5b610c4c86828701610ba2565b92509250509250925092565b6000819050919050565b6000610c7d610c78610c7384610abf565b610c58565b610abf565b9050919050565b6000610c8f82610c62565b9050919050565b6000610ca182610c84565b9050919050565b610cb181610c96565b82525050565b6000602082019050610ccc6000830184610ca8565b92915050565b600060208284031215610ce857610ce7610ab5565b5b6000610cf684828501610b08565b91505092915050565b610d0881610b1d565b82525050565b600081519050919050565b600082825260208201905092915050565b60005b83811015610d48578082015181840152602081019050610d2d565b60008484015250505050565b6000601f19601f8301169050919050565b6000610d7082610d0e565b610d7a8185610d19565b9350610d8a818560208601610d2a565b610d9381610d54565b840191505092915050565b60008115159050919050565b610db381610d9e565b82525050565b6000608082019050610dce6000830187610cff565b8181036020830152610de08186610d65565b9050610def6040830185610daa565b610dfc6060830184610daa565b95945050505050565b600081519050610e1481610af1565b92915050565b600060208284031215610e3057610e2f610ab5565b5b6000610e3e84828501610e05565b91505092915050565b7f4f6e6c792061646d696e2063616e206578656375746520746869730000000000600082015250565b6000610e7d601b83610d19565b9150610e8882610e47565b602082019050919050565b60006020820190508181036000830152610eac81610e70565b9050919050565b7f4e6f2066756e64207265717565737420666f756e640000000000000000000000600082015250565b6000610ee9601583610d19565b9150610ef482610eb3565b602082019050919050565b60006020820190508181036000830152610f1881610edc565b9050919050565b7f5265717565737420616c726561647920617070726f7665640000000000000000600082015250565b6000610f55601883610d19565b9150610f6082610f1f565b602082019050919050565b60006020820190508181036000830152610f8481610f48565b9050919050565b610f9481610adf565b82525050565b6000606082019050610faf6000830186610f8b565b610fbc6020830185610cff565b610fc96040830184610cff565b949350505050565b6000602082019050610fe66000830184610cff565b92915050565b60006020820190506110016000830184610f8b565b92915050565b61101081610d9e565b811461101b57600080fd5b50565b60008151905061102d81611007565b92915050565b60006020828403121561104957611048610ab5565b5b60006110578482850161101e565b91505092915050565b7f4465706172746d656e74206e6f7420617070726f76656420666f722066756e6460008201527f696e670000000000000000000000000000000000000000000000000000000000602082015250565b60006110bc602383610d19565b91506110c782611060565b604082019050919050565b600060208201905081810360008301526110eb816110af565b9050919050565b7f5265717565737420616d6f756e74206d7573742062652067726561746572207460008201527f68616e207a65726f000000000000000000000000000000000000000000000000602082015250565b600061114e602883610d19565b9150611159826110f2565b604082019050919050565b6000602082019050818103600083015261117d81611141565b9050919050565b7f5265717565737420616c7265616479206578697374732c207761697420666f7260008201527f20617070726f76616c206f722072656a656374696f6e00000000000000000000602082015250565b60006111e0603683610d19565b91506111eb82611184565b604082019050919050565b6000602082019050818103600083015261120f816111d3565b9050919050565b7f4e487b7100000000000000000000000000000000000000000000000000000000600052604160045260246000fd5b7f4e487b7100000000000000000000000000000000000000000000000000000000600052602260045260246000fd5b6000600282049050600182168061128c57607f821691505b60208210810361129f5761129e611245565b5b50919050565b60008190508160005260206000209050919050565b60006020601f8301049050919050565b600082821b905092915050565b6000600883026113077fffffffffffffffffffffffffffffffffffffffffffffffffffffffffffffffff826112ca565b61131186836112ca565b95508019841693508086168417925050509392505050565b600061134461133f61133a84610b1d565b610c58565b610b1d565b9050919050565b6000819050919050565b61135e83611329565b61137261136a8261134b565b8484546112d7565b825550505050565b600090565b61138761137a565b611392818484611355565b505050565b5b818110156113b6576113ab60008261137f565b600181019050611398565b5050565b601f8211156113fb576113cc816112a5565b6113d5846112ba565b810160208510156113e4578190505b6113f86113f0856112ba565b830182611397565b50505b505050565b600082821c905092915050565b600061141e60001984600802611400565b1980831691505092915050565b6000611437838361140d565b9150826002028217905092915050565b61145082610d0e565b67ffffffffffffffff81111561146957611468611216565b5b6114738254611274565b61147e8282856113ba565b600060209050601f8311600181146114b1576000841561149f578287015190505b6114a9858261142b565b865550611511565b601f1984166114bf866112a5565b60005b828110156114e7578489015182556001820191506020850194506020810190506114c2565b868310156115045784890151611500601f89168261140d565b8355505b6001600288020188555050505b505050505050565b82818337600083830152505050565b60006115348385610d19565b9350611541838584611519565b61154a83610d54565b840190509392505050565b600060408201905061156a6000830186610cff565b818103602083015261157d818486611528565b9050949350505050565b7f43616e6e6f742072656a65637420616e20616c726561647920617070726f766560008201527f6420726571756573740000000000000000000000000000000000000000000000602082015250565b60006115e3602983610d19565b91506115ee82611587565b604082019050919050565b60006020820190508181036000830152611612816115d6565b905091905056fea2646970667358221220605621e616faed7d71d62bec27635c00d4f6e36f0bac0c1e135040437ce5fc4c64736f6c63430008180033",
  "linkReferences": {},
  "deployedLinkReferences": {}
}