{
  "_format": "hh-sol-artifact-1",
  "contractName": "PublicDashboard",
  "sourceName": "contracts/PublicDashboard.sol",
  "abi": [
    {
      "inputs": [
        {
          "internalType": "address",
          "name": "_budgetContract",
          "type": "address"
        }
      ],
      "stateMutability": "nonpayable",
      "type": "constructor"
    },
    {
      "stateMutability": "payable",
      "type": "fallback"
    },
    {
      "inputs": [],
      "name": "budgetContract",
      "outputs": [
        {
          "internalType": "contract BudgetAllocation",
          "name": "",
          "type": "address"
        }
      ],
      "stateMutability": "view",
      "type": "function"
    },
    {
      "inputs": [
        {
          "internalType": "address",
          "name": "_department",
          "type": "address"
        }
      ],
      "name": "getAllocation",
      "outputs": [
        {
          "internalType": "uint256",
          "name": "",
          "type": "uint256"
        }
      ],
      "stateMutability": "view",
      "type": "function"
    },
    {
      "inputs": [
        {
          "internalType": "address",
          "name": "_department",
          "type": "address"
        },
        {
          "internalType": "uint256",
          "name": "_id",
          "type": "uint256"
        }
      ],
      "name": "getRemainingBudget",
      "outputs": [
        {
          "internalType": "uint256",
          "name": "",
          "type": "uint256"
        }
      ],
      "stateMutability": "view",
      "type": "function"
    },
    {
      "inputs": [
        {
          "internalType": "address",
          "name": "_department",
          "type": "address"
        },
        {
          "internalType": "uint256",
          "name": "_id",
          "type": "uint256"
        }
      ],
      "name": "getSpent",
      "outputs": [
        {
          "internalType": "uint256",
          "name": "",
          "type": "uint256"
        }
      ],
      "stateMutability": "view",
      "type": "function"
    },
    {
      "stateMutability": "payable",
      "type": "receive"
    }
  ],
  "bytecode": "0x60806040523480156200001157600080fd5b5060405162000cea38038062000cea83398181016040528101906200003791906200015a565b600073ffffffffffffffffffffffffffffffffffffffff168173ffffffffffffffffffffffffffffffffffffffff1603620000a9576040517f08c379a0000000000000000000000000000000000000000000000000000000008152600401620000a090620001ed565b60405180910390fd5b806000806101000a81548173ffffffffffffffffffffffffffffffffffffffff021916908373ffffffffffffffffffffffffffffffffffffffff160217905550506200020f565b600080fd5b600073ffffffffffffffffffffffffffffffffffffffff82169050919050565b60006200012282620000f5565b9050919050565b620001348162000115565b81146200014057600080fd5b50565b600081519050620001548162000129565b92915050565b600060208284031215620001735762000172620000f0565b5b6000620001838482850162000143565b91505092915050565b600082825260208201905092915050565b7f496e76616c696420636f6e747261637420616464726573730000000000000000600082015250565b6000620001d56018836200018c565b9150620001e2826200019d565b602082019050919050565b600060208201905081810360008301526200020881620001c6565b9050919050565b610acb806200021f6000396000f3fe6080604052600436106100435760003560e01c80630e022923146100855780631f98fad6146100c2578063745f64d7146100ff578063ba02da311461012a5761004a565b3661004a57005b6040517f08c379a000000000000000000000000000000000000000000000000000000000815260040161007c90610669565b60405180910390fd5b34801561009157600080fd5b506100ac60048036038101906100a791906106ec565b610167565b6040516100b99190610732565b60405180910390f35b3480156100ce57600080fd5b506100e960048036038101906100e49190610779565b6102c5565b6040516100f69190610732565b60405180910390f35b34801561010b57600080fd5b506101146104d1565b6040516101219190610818565b60405180910390f35b34801561013657600080fd5b50610151600480360381019061014c9190610779565b6104f5565b60405161015e9190610732565b60405180910390f35b600081600073ffffffffffffffffffffffffffffffffffffffff168173ffffffffffffffffffffffffffffffffffffffff16036101d9576040517f08c379a00000000000000000000000000000000000000000000000000000000081526004016101d09061087f565b60405180910390fd5b60008060009054906101000a900473ffffffffffffffffffffffffffffffffffffffff1673ffffffffffffffffffffffffffffffffffffffff166352a9039c856040518263ffffffff1660e01b815260040161023591906108ae565b602060405180830381865afa158015610252573d6000803e3d6000fd5b505050506040513d601f19601f8201168201806040525081019061027691906108de565b9050600081116102bb576040517f08c379a00000000000000000000000000000000000000000000000000000000081526004016102b29061097d565b60405180910390fd5b8092505050919050565b600082600073ffffffffffffffffffffffffffffffffffffffff168173ffffffffffffffffffffffffffffffffffffffff1603610337576040517f08c379a000000000000000000000000000000000000000000000000000000000815260040161032e9061087f565b60405180910390fd5b60008060009054906101000a900473ffffffffffffffffffffffffffffffffffffffff1673ffffffffffffffffffffffffffffffffffffffff166352a9039c866040518263ffffffff1660e01b815260040161039391906108ae565b602060405180830381865afa1580156103b0573d6000803e3d6000fd5b505050506040513d601f19601f820116820180604052508101906103d491906108de565b905060008060009054906101000a900473ffffffffffffffffffffffffffffffffffffffff1673ffffffffffffffffffffffffffffffffffffffff1663c7d8229087876040518363ffffffff1660e01b815260040161043492919061099d565b602060405180830381865afa158015610451573d6000803e3d6000fd5b505050506040513d601f19601f8201168201806040525081019061047591906108de565b9050808210156104ba576040517f08c379a00000000000000000000000000000000000000000000000000000000081526004016104b190610a12565b60405180910390fd5b80826104c69190610a61565b935050505092915050565b60008054906101000a900473ffffffffffffffffffffffffffffffffffffffff1681565b600082600073ffffffffffffffffffffffffffffffffffffffff168173ffffffffffffffffffffffffffffffffffffffff1603610567576040517f08c379a000000000000000000000000000000000000000000000000000000000815260040161055e9061087f565b60405180910390fd5b60008054906101000a900473ffffffffffffffffffffffffffffffffffffffff1673ffffffffffffffffffffffffffffffffffffffff1663c7d8229085856040518363ffffffff1660e01b81526004016105c292919061099d565b602060405180830381865afa1580156105df573d6000803e3d6000fd5b505050506040513d601f19601f8201168201806040525081019061060391906108de565b91505092915050565b600082825260208201905092915050565b7f556e737570706f72746564206f7065726174696f6e0000000000000000000000600082015250565b600061065360158361060c565b915061065e8261061d565b602082019050919050565b6000602082019050818103600083015261068281610646565b9050919050565b600080fd5b600073ffffffffffffffffffffffffffffffffffffffff82169050919050565b60006106b98261068e565b9050919050565b6106c9816106ae565b81146106d457600080fd5b50565b6000813590506106e6816106c0565b92915050565b60006020828403121561070257610701610689565b5b6000610710848285016106d7565b91505092915050565b6000819050919050565b61072c81610719565b82525050565b60006020820190506107476000830184610723565b92915050565b61075681610719565b811461076157600080fd5b50565b6000813590506107738161074d565b92915050565b600080604083850312156107905761078f610689565b5b600061079e858286016106d7565b92505060206107af85828601610764565b9150509250929050565b6000819050919050565b60006107de6107d96107d48461068e565b6107b9565b61068e565b9050919050565b60006107f0826107c3565b9050919050565b6000610802826107e5565b9050919050565b610812816107f7565b82525050565b600060208201905061082d6000830184610809565b92915050565b7f496e76616c6964206465706172746d656e742061646472657373000000000000600082015250565b6000610869601a8361060c565b915061087482610833565b602082019050919050565b600060208201905081810360008301526108988161085c565b9050919050565b6108a8816106ae565b82525050565b60006020820190506108c3600083018461089f565b92915050565b6000815190506108d88161074d565b92915050565b6000602082840312156108f4576108f3610689565b5b6000610902848285016108c9565b91505092915050565b7f4e6f20616c6c6f636174696f6e20666f756e6420666f72206465706172746d6560008201527f6e74000000000000000000000000000000000000000000000000000000000000602082015250565b600061096760228361060c565b91506109728261090b565b604082019050919050565b600060208201905081810360008301526109968161095a565b9050919050565b60006040820190506109b2600083018561089f565b6109bf6020830184610723565b9392505050565b7f5370656e7420616d6f756e74206578636565647320616c6c6f636174696f6e00600082015250565b60006109fc601f8361060c565b9150610a07826109c6565b602082019050919050565b60006020820190508181036000830152610a2b816109ef565b9050919050565b7f4e487b7100000000000000000000000000000000000000000000000000000000600052601160045260246000fd5b6000610a6c82610719565b9150610a7783610719565b9250828203905081811115610a8f57610a8e610a32565b5b9291505056fea26469706673582212207ea1fcd8777ea15409e29abfd2bee70d8d6f695bf7be4bef7fc02dce9471e9d664736f6c63430008180033",
  "linkReferences": {},
  "deployedLinkReferences": {}
}